S0150000733564395F63656C6C5F6F74612E7372656328
S3150000000080E20620394F030099490300354F03006B
S31500000010354F0300354F0300354F03000000000045
S31500000020000000000000000000000000354F030043
S31500000030354F030000000000F51B0100A91C01005C
S31500000040B546030059E10000110503001105030040
S315000000500DFA02000DFA02000DFA0200B5EC0200DC
S315000000605DE8020091EB020029EA0200E5CA0200FF
S31500000070A5CA0200F1B9020049BA0200E5B80200B9
S31500000080F1B9020049BA0200E5B80200F1B902006E
S3150000009049BA0200E5B8020015D9020019D70200D4
S315000000A0A5D6020015D802002DA30000FFFFFFFF12
S315000000B0FFFFFFFFFFFFFFFFFFFFFFFFFFFFFFFF4A
S315000000C0FFFFFFFFFFFFFFFFFFFFFFFFFFFFFFFF3A
S315000000D0FFFFFFFFFFFFFFFFFFFFFFFFFFFFFFFF2A
S315000000E0FFFFFFFFFFFFFFFFFFFFFFFFFFFFFFFF1A
S31500000400FFFFFFFFFFFDFFFFFCFFFFFFFFFFFFFFFB
S31500000410FCFFFFFFFFFFFFFFFCFFFF00FFFFFF00EA
S31500000420FCFF0F20FFFF0F20FCFF7F40FFFF7F40F8
S31500000430FCFF0D40FFFF7F40FFFFFFFFFFFFFFFFB9
S31500000440FFFFFFFFFFFFFFFFFFFFFFFFFFFFFFFFB6
S31500000450FFFFFFFFFFFFFFFFFFFFFFFFFFFFFFFFA6
S31500000460FFFFFFFFFFFFFFFFFFFFFFFFFFFFFFFF96
S31500000470FFFFFFFFFFFFFFFFFFFFFFFFFFFFFFFF86
S31500000480FFFFFFFFFFFFFFFFFFFFFFFFFFFFFFFF76
S31500000490FFFFFFFFFFFFFFFFFFFFFFFFFFFFFFFF66
S315000004A0FFFFFFFFFFFFFFFFFFFFFFFFFFFFFFFF56
S315000004B0FFFFFFFFFFFFFFFFFFFFFFFFFFFFFFFF46
S315000004C0FFFFFFFFFFFFFFFFFFFFFFFFFFFFFFFF36
S315000004D0FFFFFFFFFFFFFFFFFFFFFFFFFFFFFFFF26
S315000004E0FFFFFFFFFFFFFFFFFFFFFFFFFFFFFFFF16
S315000004F0FFFFFFFFFFFFFFFFFFFFFFFFFFFFFFFF06
S315000005000428FE1F4B002010F886FE1F63014000E2
S315000005100828FE1FB6002B30E087FF1FC0042B30D3
S315000005208087FF1F020006088487FF1F030006104E
S315000005302CEBFF1F06000628D887FF1F7008150042
S31500000540D487FF1F6D081508D087FF1F6F08151089
S31500000550C887FF1F6E081518DC87FF1F4A00281082
S31500000560CC87FF1F490028080C28FE1F9819141075
S31500000570F086FE1F9A191420F486FE1F9919142876
S31500000580208CFF1F9E1D14106CEBFF1FA01D142056
S3150000059008F4FF1F9F1D142830EBFF1FA421141021
S315000005A00CF4FF1FA62114201C8CFF1FA521142864
S315000005B038EBFF1FC4051600248CFF1FC10516105B
S315000005C034EBFF1FC505161828EEFF1FC2051620BF
S315000005D07887FE1F61003310200000002000010014
S315000005E02F0000002F0001000C0001001100000088
S315000005F0300000003000010024000000240001004B
S315000006002400020024000300240004002400050046
S315000006101300000017000000230000002100000066
S31500000620210001000700000007000100070002008A
S315000006300700030007000400070005000700060086
S315000006400700070012000000440000000800000038
S315000006500B000000410000004000000040000100C7
S3150000066004000000430000002B0000002B000A00DD
S315000006702B000B002B000C002B000D002B000100A3
S315000006802B0002002B0003002B0004002B000500AA
S315000006902B0006002B0007002B0008002B0009008A
S315000006A00600000006000A0006000B0006000C000B
S315000006B006000D0006000E0006000F0006000100F1
S315000006C006000200060003000600040006000500FE
S315000006D006000600060007000600080006000900DE
S315000006E01500000015000100150002003100000091
S315000006F02A00000045000000100000000301000071
S3150000070003000000030001000F0000000D000000C0
S315000007102D000000420000002C0000002C0001000B
S315000007202C0002002C00030032000000280000000C
S31500000730180000001400000014000100140002005C
S315000007401400030014000400140005001400060041
S31500000750140007001400080014000900340000000B
S3150000076034000100160000001600010035000000EC
S3150000077036000000360001002200000033000000B1
S31500000780330100002900000010B5054C237833B969
S31500000790044B13B10448AFF300800123237010BD4E
S315000007A03019FE1F000000008C860A00084B10B5A9
S315000007B01BB108480849AFF300800848036803B92D
S315000007C010BD074B002BFBD0BDE81040184700BFFB
S315000007D0000000008C860A003419FE1F7418FE1FE4
S315000007E00000000050B9104A1378082B19D0022BCC
S315000007F017D0062B08D0062313707047012804D0A3
S31500000800102806D00A2808D07047084B1B68012B11
S31500000810FAD8054B02221A707047034B07221A704A
S3150000082070470023137070474C19FE1F5019FE1FA6
S3150000083050B90D4B1A78082A10D0042A0ED0052A72
S315000008400FD006221A707047012800D07047064B59
S315000008501A78032A05D005221A70704700221A70EA
S31500000860704704221A7070474C19FE1F2DE9F0419B
S315000008702E4B2F4DDC6986B006460F4690462868FB
S3150000088001AA2121A04768B9019B5BB1A6F1160315
S315000008900B2B3FD8DFE803F01A3E22272C3E3E31D1
S315000008A03E3E390A162006B0BDE8F0813B6801934A
S315000008B0286801AA0A21A0470028F4D01D4B9842B7
S315000008C00CBF1820162006B0BDE8F0810197CDF8C0
S315000008D00C80286801AA0521A047EDE728683A465A
S315000008E00B21A047E8E728683A460121A047E3E73D
S315000008F028683A460321A047DEE70497CDF814801E
S31500000900286801AA0C21A047D6E728683A4609219B
S31500000910A047D1E7ADF804600297ADF80C802868CF
S3150000092001AA4FF48051A047C6E700BFE8F90800C6
S31500000930900A04201A040100054B10B401241C601F
S315000009401946112004225DF8044BFFF78FBF00BF44
S315000009505419FE1F70B5114D2E78082E18D016208A
S315000009600F490022FFF782FF80B92B780BB10823CD
S315000009702B7000210A461920FFF778FF044600B1C4
S315000009802E70192012F0D2FF204670BD2E7070BD59
S315000009900024192012F0CAFF204670BD4C19FE1F14
S315000009A0247E0A002DE9F843484D494C2D684FF046
S315000009B0000E07460E469046994684F800E08DB133
S315000009C0444A002316602370FFF7C4FF054638B972
S315000009D0384687F086FD21280AD90320BDE8F8832A
S315000009E0BDE8F883FFF7A8FF0028E9D0BDE8F88343
S315000009F02846294603F05CFD10B11320BDE8F883B4
S31500000A00394603F047FC05460028F6D1731EDBB2D3
S31500000A10022B4AD8304A012E52F8235049D008F109
S31500000A20FF33DBB2022B96BF2C4A002152F823106B
S31500000A30002003F0CFFE0028DFD1494603F0F8FE80
S31500000A400028DAD12946002003F0A6FE0246002837
S31500000A50D3D1022103F010FF0028CED1204903F0A4
S31500000A605BFC06460028C8D101232370184D03F00D
S31500000A707BFC08B12E70C0E72B78012B05D119201D
S31500000A8012F054FF2378012BF9D0022B07D0072B45
S31500000A9008D0062B14BF00200E20BDE8F8830020E6
S31500000AA0BDE8F8830D20BDE8F883002EB7D13546A2
S31500000AB0C8E74A46314603F0FDFD00289DD1314680
S31500000AC003F04CFE002898D1BCE700BF5419FE1F66
S31500000AD04C19FE1F5019FE1FE4F80800F0F8080034
S31500000AE0E50700002DE9F843394D3A4C2D684FF0E3
S31500000AF0000E07460E469146984684F800E035B14A
S31500000B0000232370FFF726FF38B1BDE8F883FFF70F
S31500000B1013FF0028F4D0BDE8F883012103F0C8FCD8
S31500000B2010B11320BDE8F88336B9384687F0D9FCF2
S31500000B30212807D90320EEE7B1B203F02FFD0028E4
S31500000B40EFD1F2E73946002003F0A4FB0028E8D1F4
S31500000B50B9F1000F36D1B8F1030F20D900250321D2
S31500000B60002003F019FE0028DBD1294603F032FEEF
S31500000B700028D6D1089903F05BFE0028D1D10020C9
S31500000B80154903F0C9FB05460028CAD10323237083
S31500000B9003F0EAFB0F4B0028BDD01D70C1E70F4ADA
S31500000BA00F4B52F8281053F82850B8F1000FE6D032
S31500000BB0B8F1010FD4D14146002003F0CFFD002843
S31500000BC0AFD1DCE7494603F049FC0028A9D1C2E7CA
S31500000BD05419FE1F4C19FE1F31080000C4F8080006
S31500000BE0D4F808002DE9F04F6B4BDFF8B4E11C6830
S31500000BF095B0002306460F4615468EF8003004933E
S31500000C00ADF80A3064B1322012F090FE002063493C
S31500000C1003F040FB034650B1132015B0BDE8F08F3A
S31500000C20FFF78AFE0028EED015B0BDE8F08F0DF173
S31500000C305009102049F8443D04224946FFF716FEA4
S31500000C4004460028E9D1322012F070FE2C202146FD
S31500000C502246FFF70BFE0028DFD104A90DF10A0298
S31500000C6003F0F0FA044648B1132403234946102042
S31500000C7004220393FFF7FAFD2046CEE7322012F056
S31500000C8055FE22462D2005A9FFF7F0FD0446002853
S31500000C90EBD1BDF81430AB4238BFDDB205EB8505AC
S31500000CA005EB85054FEA45084FF0000B0BAD03E059
S31500000CB094466AB90BF1320BC345D6D0069A12EBAD
S31500000CC00B0AF7D09AF80120202AF1D94FF0210C0F
S31500000CD062460AF10E012846CDF804C086F0CEFA27
S31500000CE0DDF804C014AB03EB0C02002102F8241C4F
S31500000CF09AF803205AB39AF82F209AB39AF82E201E
S31500000D0011073DD4520741D50120032208959AF8D0
S31500000D10071001291ED020D302291AD100218DF8EF
S31500000D202B100AF1080109919AF800108DF8281085
S31500000D308DF82A008DF8292014A99AF8022001F8C6
S31500000D40342D3046B84700228AF80220B2E7032045
S31500000D50DCE7FF218DF82B10E3E74FF002038DF857
S31500000D602B30DEE79AF831206AB19AF83020130763
S31500000D700FD412F0040F0CBF032001200222C5E796
S31500000D8002200322C2E703200122BFE70320024616
S31500000D90BCE702200246B9E75419FE1F247E0A006A
S31500000DA04C19FE1F30B5163987B0054614464A2938
S31500000DB000F2BA80DFE801F03BB8525CB8B8647064
S31500000DC07C84B8B8919BB8B8B8B8B8B8B8B8B8B851
S31500000DD0B8B8B8B8B8B8B8B8B8B8B8B8B8B8B8B88D
S31500000DE0B8B8B8B8B8B8B8B8B8B8B8B8B8B8B8B87D
S31500000DF0B8B8B8B8B8B8B8B8B8B8B8B8B8B8B8B86D
S31500000E00B8A7260000F088FD1021224601F026FE34
S31500000E10002840F092802368022B00F0AA80032B62
S31500000E2000F09080012B16D10223236013E0536853
S31500000E30002B00F0A0800122ADF80820184601938F
S31500000E4087F04FFB0390284600F066FD052101AAB6
S31500000E5001F004FEC0B240B207B030BD1368082BE3
S31500000E606BD8DFE803F0836A6A807D6A6A6A72007B
S31500000E7000F052FD2246012101F0F0FDC0B2EAE782
S31500000E80526823890492059300F046FD072101AAC2
S31500000E9001F0E4FDC0B2DEE75268238904920593AF
S31500000EA000F03AFD0C2101AA01F0D8FDC0B2D2E74C
S31500000EB000F032FD0421002201F0D0FDC0B2CAE7E5
S31500000EC000F02AFD132101AA01F0C8FD002834D143
S31500000ED0029A019B62602360BDE700F01DFD1921A7
S31500000EE001AA01F0BBFD40BB019B2360B3E7536839
S31500000EF0049300F011FD142101AA01F0AFFDE0B941
S31500000F00059B2381A7E71368CBB1022B36D0012BB3
S31500000F1013D103231360284600F0FEFC224603216A
S31500000F2001F09CFDC0B296E700F0F6FC22464FF4B5
S31500000F30805101F093FDC0B28DE7FF208BE70223BD
S31500000F401360E8E70123236085E701232360284631
S31500000F5000F0E2FC22460B2101F080FDC0B27AE7E8
S31500000F6003232360F3E702232360F0E700232360D3
S31500000F70EDE720606FE7ADF808305FE70123136007
S31500000F80C9E700BF13F08ABD00B583B034230093D0
S31500000F900449054A05484FF4005313F057F903B0C6
S31500000FA05DF804FB1CF90800C80A0420940A042012
S31500000FB00020704710B582B002A90024024641F80D
S31500000FC0044D2346044813F00BF910B9019802B0FA
S31500000FD010BD204602B010BD940A042008B513F0D7
S31500000FE095F91D289ABF024B185CFF2040B208BD38
S31500000FF0FCF808006423054A03FB00F0A2FB00305E
S31500001000800908BF012012F091BC00BFD34D6210C9
S31500001010830A03EB4302D200B2F5FA7F88BF01339D
S315000010204FF47A7202FB1300B0F5FA7F88BF0133E2
S3150000103053B16422064802FB03F3A0FB0330800988
S3150000104008BF012012F072BC012012F06FBC00BF75
S31500001050D34D6210012010F041BD00BF002010F0FA
S315000010603DBD00BF10B584B0002404ABA242069A71
S3150000107043F8044D009214BF0322012213F0BEF977
S31500001080001B18BF0120404204B010BD08B5002265
S3150000109013F0D6F91D289ABF024B185CFF2040B208
S315000010A008BD00BFFCF8080008B50349242213F068
S315000010B043F9002008BD00BF30F908000020704742
S315000010C00020704708B513F083F91D289ABF024B1C
S315000010D0185CFF2040B208BDFCF8080008B50649B8
S315000010E03423012213F0C2F91D289ABF034B185C62
S315000010F0FF2040B208BD00BF44F90800FCF8080014
S3150000110008B513F021FA1D289ABF024B185CFF2080
S3150000111040B208BDFCF8080008B513F041FA1D28D6
S315000011209ABF024B185CFF2040B208BDFCF80800CD
S3150000113008B513F0F3F91D289ABF024B185CFF207F
S3150000114040B208BDFCF808006423054A03FB00F022
S31500001150A2FB0030800908BF012012F0E7BB00BFE8
S31500001160D34D6210FFF754BF04F092BC0379012BF4
S3150000117000D07047014813F09DBB00BF5C19FE1FED
S31500001180044B1B6801299A68186801D093681847B0
S31500001190536818477819FE1F2DE9F041164D174C74
S315000011A02868246A40890F46002198461646A047BB
S315000011B0134B1B689A681868B8F1000F15D0D2F85F
S315000011C004C0394632460123E04700284FF0FF317C
S315000011D00C480CBF0026172613F056FB2B6801217E
S315000011E05889A0473046BDE8F081D2F808C0394694
S315000011F032460123E047E8E77C19FE1F8811090003
S315000012005819FE1F5C19FE1F00207047002070470A
S315000012102DE9F043154F164C3868256A408985B08C
S3150000122004AC904644F8041D00219946A847114B8A
S3150000123019680126D1F808E0086800964A46434630
S315000012402146DEF80C40A0474FF0FF3100280A483F
S315000012500CBF0024172413F017FB3B68314658894E
S31500001260A847204605B0BDE8F08300BF7C19FE1FE5
S31500001270881109005819FE1F5C19FE1F3F4B404993
S315000012802DE9F0471C6F3F4FDFF80C913E4D94E877
S315000012900C0080468EB03A60C9F8003000223B4808
S315000012A02C601C23D8F8886013F084FA002855D1E6
S315000012B02A68374B50891B6ADFF8C8A00121984776
S315000012C0D7F800E0DFF8D4C0DEF804500FCD05AC47
S315000012D00FC40FCD0FC42B682360DEF80830DEF88C
S315000012E000001B68CDF82CC005A9984700283AD104
S315000012F0DAF800301B68C8F89430D9F800E0DFF857
S31500001300A0C0DEF80450DFF890900FCD6C460FC4F5
S315000013102B682360DEF80830DEF800001B68CDF885
S3150000132008C06946984718BBD9F800301B68C8F84A
S3150000133098303A6896F8F5315268D268C6F8EC21CA
S3150000134043F002030121C122002086F8F531C6F8D8
S31500001350F01186F8F4210EB0BDE8F0870D48C521DE
S3150000136005F050F9A4E70B48D52105F04BF9C4E781
S315000013700848E12105F046F9DBE700BFF01EFE1F35
S3150000138064F908005819FE1F7C19FE1F5C19FE1F20
S315000013908811090054F908007819FE1F6D11000024
S315000013A06911000038B50C4B1B6805469A68186829
S315000013B013690024C5F89C409847084B1B689A6837
S315000013C0186893699847064813F048FAC5F8944098
S315000013D0C5F89840204638BD5819FE1F7819FE1FDB
S315000013E05C19FE1F064B074A1B6F1360064A1889D5
S315000013F0136A82B0019301B1012102B0184700BF00
S31500001400F01EFE1F7C19FE1F8811090000F070B83F
S3150000141070B50E4600210546FFF772FE304600F015
S3150000142089F8044628469CB1FFF776FE20462A46F0
S315000014300D4900F06FF8204600F080F9864201DC85
S31500001440204670BD0948722105F0DCF8204670BDC3
S31500001450214604F0BBFE2846FFF75EFE03487521D1
S3150000146005F0D0F8ECE700BF0D14000078F908008D
S31500001470D0F888301A69012A10B504460AD10A2123
S315000014802046FFF7C5FF00F033F8D4F888301A6914
S31500001490012AF4D0D3F83C0238B1002105F0CCF88B
S315000014A0D4F888300022C3F83C2210BD38B500219C
S315000014B0D0F8884005464FF4167005F0ADF8C4F82C
S315000014C03C0290B1D5F8882000234FF41671A4F899
S315000014D0401282F89032D5F88810C2F880020122B4
S315000014E022611846C1F8883238BD022038BD00BFD7
S315000014F010B50446006A10B1022105F09DF8E069B6
S3150000150008B10368984720460321BDE8104005F05E
S3150000151093B800BF10B4C36A046A01601B1B04F1D0
S315000015204001C46042608360416281625DF8044BA1
S31500001530704700BF38B503210546482005F06CF812
S315000015400446D8B10021482285F0BEFE0F4B236029
S3150000155005F14000A060022105F05EF80346E06058
S3150000156070B1A268206202444033E2626362A36201
S3150000157004F134000021142285F0A6FE204638BD71
S31500001580204603211C4605F057F8F7E7F114000042
S3150000159003681847836A426A017E9A1A59B1C36979
S315000015A05BB1013989B2013103EBC10153F8080F70
S315000015B08B420244FAD11046704710B489B2012317
S315000015C05C1CA3B250F834408B422244F8D9104632
S315000015D05DF8044B704700BF034679B1007E884230
S315000015E017D3D86978B109B210B400EBC10450F82A
S315000015F03130606813605DF8044B7047406A9B6A3F
S315000016001B1A1360704703EBC1018B68C86813602F
S3150000161070470020704700BF037E23B90123416154
S315000016200261037670470248D22104F0EBBF00BF87
S315000016308CF9080038B504460D46FFF70BFD236804
S315000016405BB163681D6323896560013300222A63E9
S315000016502381BDE83840FFF701BD2560F3E700BFF1
S3150000166038B50446006878B1FFF7F4FC256863686E
S315000016709D420AD02B6B236023890022013B2381E4
S315000016802A63FFF7EBFC284638BD0023236063601E
S31500001690F2E700BF2DE9F0410C461746002148222B
S315000016A01D460646BDF8188085F00EFE44B13D4441
S315000016B02544274404EB0803B5627762F36234627B
S315000016C0BDE8F081406A704738B50D46036A416A45
S315000016D0CB1AAB42044605D240F2A521034804F0DA
S315000016E091FF616A491B6162002038BDC8F9080094
S315000016F038B5826AC36A9B1A8B4205460C4605D2E8
S3150000170004484FF4317104F07DFFAA6A1444AC62B8
S31500001710002038BDD8F9080070B5866A14460D4613
S315000017201146FFF7E5FF30462946224685F0A6FD1D
S31500001730002070BD426A006A101A7047C26A806A49
S31500001740101A704738B5426A836A9B1A8B4205465F
S315000017500C4605D204484FF43F7104F053FF6A6A01
S3150000176014446C62002038BDA8F9080038B50D464F
S31500001770436A816ACB1AAB42044605D240F20D3168
S31500001780034804F03FFFA16A491BA162002038BD4F
S31500001790B8F90800FEE700BFFEE700BF38B5846968
S315000017A0BCB10546204605F095FA204604F016FF22
S315000017B0204605F091FAD4F8880010B1012104F012
S315000017C03BFF2046012104F037FF034A0023136044
S315000017D0AB61002038BD00BFD019FE1F70B50121D6
S315000017E00646B02004F018FF344C0346206000285B
S315000017F040D00021B02285F067FD4FF4257001210D
S31500001800256804F009FFC5F88800F8B123680021AF
S31500001810D3F888004FF4257285F056FDB268236828
S31500001820D2692749B36103F13800C3F88020C3F8B1
S315000018308460242212F080FD206822495C30242234
S3150000184012F07AFD206805F0E9F9D0B123681B4D46
S3150000185083B1D3F888001C4C012104F0EDFE286802
S31500001860012104F0E9FE2B681846052105F0CEF9A2
S31500001870204670BD144C1846052105F0C7F92046D0
S3150000188070BD206804F0A0FB4FF47A70FFF7B2FB3E
S315000018900E4B186813F0F6F8206805F0C1F90546F6
S315000018A00028D3D10A4B206802221A7005F0DEF90F
S315000018B0084A236816602C46D6E700BFD019FE1FDB
S315000018C008FA080018FA0800FF040100EC19FE1FC8
S315000018D0C819FE1FC82A042038B531B9846914B165
S315000018E0FFF75CFF84B2204638BD836913B100243C
S315000018F0204638BD074D2C680CB11C46F3E7FFF7B0
S315000019006DFF80B218B92B6801332B60EBE70446F4
S31500001910E9E700BFCC19FE1F014B53F820007047C2
S31500001920C82A042029B370B40446012501F00F0229
S31500001930092A02F137069ABF303222702670090949
S31500001940A4EB00032A4604F1010405F10105EDD1DB
S31500001950002B81540BDD0344421E12F8014F1D7803
S3150000196003F8014901311C1AA1421570F5DB70BC60
S3150000197070470170704700BF19B3F0B4441E254686
S315000019800023114F00E01346A7FB0162D20802EBC9
S315000019908206A1EB4601303105F8011F11465A1C9B
S315000019A00029F0D1815453B1034414F8012F1D7856
S315000019B003F8012901311A1A91422570F5DBF0BCB2
S315000019C070470170704700BFCDCCCCCC10B5BEB00F
S315000019D03C2302A90DF10602ADF80630D0F8884086
S315000019E004F028F930B9BDF806301BB1043080B2D6
S315000019F09842FBD30020C4F8D0003EB010BD00BF13
S31500001A002DE9F041064684B00F4610466849154652
S31500001A1086F046FD0346A8B12846664986F040FD95
S31500001A20044600287DD02846634986F039FD0346E2
S31500001A30B8B12846614986F033FD044600B304B0C8
S31500001A40BDE8F081394668460093019302930393FB
S31500001A50FFF792FF3046694686F02CFD04B0BDE8DC
S31500001A60F081394668460093019302930393FFF78A
S31500001A7059FF3046694686F01DFD04B0BDE8F08189
S31500001A806846390E0094019402940394FFF74AFFC6
S31500001A906946304686F00EFD684686F022FD4FF018
S31500001AA02E08451C06F80080C7F3074168460094D7
S31500001AB0019402940394FFF735FF7019694686F086
S31500001AC0F9FC684686F00DFD2844451C06F80080A2
S31500001AD0C7F3072168460094019402940394FFF724
S31500001AE021FF6946701986F0E5FC684686F0F9FC28
S31500001AF02844431C06F80080F9B268461E44009448
S31500001B00019402940394FFF70DFF6946304686F070
S31500001B10D1FC684686F0E5FC06F8008004B0BDE816
S31500001B20F0816846390E0094019402940394FFF7FD
S31500001B3023FF6946304686F0BDFC684686F0D1FC38
S31500001B404FF02E08451C06F80080C7F3074168468B
S31500001B500094019402940394FFF70EFF69467019EE
S31500001B6086F0A8FC684686F0BCFC2844451C06F8AE
S31500001B700080C7F3072168460094019402940394F9
S31500001B80FFF7FAFE6946701986F094FC684686F0FF
S31500001B90A8FC2844431C06F80080F9B268461E4497
S31500001BA00094019402940394FFF7E6FEADE700BFAC
S31500001BB0B834090028FA08007425090034FA080028
S31500001BC02DE9F04F85694F6897B0002D00F0A3808E
S31500001BD0D5F888600B88D6F88C8096F8F2900C467B
S31500001BE06A2B00F23C85DFE813F08D046D045D047A
S31500001BF0520422056B00310504038C033A053A05AD
S31500001C0081033E033603DF039603B9023A05A302B6
S31500001C10BD04A9049C043A053A053A053A053A0575
S31500001C203A053A053A053A053A053A0597043A055A
S31500001C303A053A05F702E802E1023A05DB02FA0440
S31500001C40E904EF042503DA04D104E0043A053A0571
S31500001C503A053A053A053A053A053A053A053A0586
S31500001C603A053A053A053A053A053A053A053A0576
S31500001C703A053A053A053A053A053A053A053A0566
S31500001C809502FD01F201E701DC013A05D401C90123
S31500001C90B4013A053A05A5013A02220219021002D8
S31500001CA0710253029D0195013A053A0532011D0163
S31500001CB015010D01FC00DC00D100C700B8009B0037
S31500001CC000233846C5490893ADF824308DF82630F0
S31500001CD086F0E6FB002840F0D784B82303FB0966AC
S31500001CE0042486F8A8410025012603A940461122AE
S31500001CF006230395ADF810508DF80E408DF80D6053
S31500001D0002F0C4F838B9404608A94FF21E0207236C
S31500001D1002F0BCF858B3B24C204617B0BDE8F08FBD
S31500001D200023C6F87432404639464FF2F60223893C
S31500001D3002F0ACF8002800F0FB84D6F87432002BD1
S31500001D40E9D0626896F87232B6F870129370002382
S31500001D5011801C46C6F87432DEE7002FDBD00A89F4
S31500001D6028463946FB1C05F0B9FB0028D3D10024D0
S31500001D70204617B0BDE8F08F404639464FF2F502CF
S31500001D80012302F083F80028C5D1F0E70021284698
S31500001D90FFF7B6F9C5F8AC702846FFF7BDF9002481
S31500001DA0BAE70B890022FC58C6F878224046394625
S31500001DB04FF2F30202F06AF80028ACD1002CD6D01C
S31500001DC04FF47A73284606F51E71012204F0D8FBFB
S31500001DD0D6F87832002B9ED0D6F87C32002B9AD1DA
S31500001DE0C5E738687968BA68FB6808AC0FC4386913
S31500001DF0206008A940460822142302F047F800286C
S31500001E0089D1B4E7B82303FB0966002496F8263186
S31500001E103B6081E73B68013B032B40F27E844FF039
S31500001E20FF3479E73B789A1E032AF8D8013BB8229B
S31500001E3003EB031302FB0933F2181146786892F894
S31500001E40272101F5947185F019FA002464E73B789F
S31500001E50013BDBB2032BE2D8BA78042ADFD87A78C2
S31500001E6002F0EF010A2903D002F0F702052AD6D1C3
S31500001E704FF0B80808FB09FB06EB0B0282F8263187
S31500001E80BB78002B3FF473AF19FB08F808F5947A7A
S31500001E90CDF804B0B244B04407F1040B4FF000098A
S31500001EA07A7802F0F703052B00F0D584520888F8FB
S31500001EB0272150460021102285F006FA7B78EBB1E7
S31500001EC0019B09EB09151D4435440024DBF800305D
S31500001ED0185705F055FC05EB5403FF2803F59073DE
S31500001EE09DD014F0010F08BF00011A7A08BFC0B2D6
S31500001EF0104318727B780134A342E7D8BB7809F106
S31500001F0001094B450BF1040B0AF1110A08F11108FE
S31500001F10C6D82CE7B82303FB09660024B6F89C3123
S31500001F203B80F9E6404639462922002301F0AEFF00
S31500001F300024F1E63B8899453FF419AFD6F85822BC
S31500001F40274CA8F85830002A86F8F23008BF00243B
S31500001F50E2E64FF000092389C6F854923946404616
S31500001F604FF2DC0201F092FF284606F515710122B8
S31500001F7041F288334C4604F003FBCDE64046394631
S31500001F804FF2D602042301F081FF00287FF4C3AE8E
S31500001F90EDE62389404639462E2201F077FF0024DC
S31500001FA0BAE6404639464FF47042032301F06EFF0D
S31500001FB000287FF4B0AEDAE6002140460B464FF229
S31500001FC0010201F063FF00287FF4A5AECFE6002FE3
S31500001FD03FF4A1AE0423BB71014C9DE64CFA080008
S31500001FE0FF0401003B78089305250024404608A914
S31500001FF04FF2790208238DF824508DF8274001F01E
S3150000200045FF00287FF487AEB1E62389404639466E
S315000020104FF2EB0201F03AFF00247DE623894046A9
S3150000202039464FF2EA0201F031FF002474E600233C
S315000020303B8096F8F230012B00F08D83002B7FF465
S3150000204096AED6F85832002B3FF491AED6F8A041A2
S31500002050002C7FF48CAEB6F854323B805CE63846F2
S31500002060F16FCC4AFFF7CCFC07F11400316FCA4A76
S31500002070FFF7C6FC07F12800716FC64AFFF7C0FCE0
S3150000208007F13C00B16FC54AFFF7BAFC002443E6EE
S3150000209000214046C6F86C120B464FF2F10201F0E1
S315000020A0F5FE002800F04E83D6F86C32002B3FF484
S315000020B032AE636896F864221A716368D6F86822AD
S315000020C01A600020C6F86C02044625E6002339464D
S315000020D0C6F860324FF2F0022389404601F0D6FE80
S315000020E06368041C586818BF012402F01DF8836950
S315000020F06442002B7FF410AED6F86032002B00F05D
S315000021002284012B7FF48BAED6F87C32002B3FF471
S315000021102EAE84E616A93B7801F8383D40464FF2CC
S315000021207202042301F0B2FE00287FF4F4AD1EE62D
S315000021300020FFF7FFF90890002800F0F6823968C2
S31500002140BA88FFF769FA0898FFF7F4FA172800F239
S31500002150D6820898924CFFF71BFADDE5914D286868
S315000021606968AA68EB6808AC0FC4286920603B68F8
S3150000217043F34003ADF820303B6843F34003ADF82A
S3150000218022303C68404644F3000408A90822142380
S31500002190ADF8244001F07AFE00287FF4BCADE6E5F8
S315000021A0284605F05DFB00243880B5E550F80C3F65
S315000021B03B608388BB800024AEE516AAFB6842F824
S315000021C0383D2846796804F0ABFC002840F0578279
S315000021D0089BFB6004469FE5284679683A683B8978
S315000021E004F04CFC002840F05E8201230446FB60AC
S315000021F092E501230021C6F8443240460B461022E0
S3150000220001F044FED6F84432012B08BF06F51177DB
S315000022100AD14FF47A7328463946002204F0B0F901
S31500002220D6F84432012BF4D0636896F9C0201A60C0
S31500002230002471E54146284605F0FEF900287FF4A2
S315000022406AADD5F88830D3F88022B3F886323B8061
S315000022507A60044660E506F170010EC9F06F00244D
S3150000226087E80F0058E5B82707FB096300214046B9
S31500002270C3F88C114FF247020B4601F007FE804669
S3150000228000287FF474AD96F8F21007FB0161012275
S3150000229041F28833284601F5C67104F071F996F8C3
S315000022A0F23007FB03F3F218D2F88C21002A3FF430
S315000022B032AD03F5B0733344626853F80B4F586878
S315000022C09968DD68D5601460506091601C69586932
S315000022D09969DD69D56114615061916196F8F230B2
S315000022E007FB03664446C6F88C8115E54046394629
S315000022F04FF22802212301F0C9FD00287FF40BAD1F
S3150000230035E500212846FEF7FBFE6F632846FEF7FB
S3150000231003FF002400E597F87430002B40F0C781D6
S31500002320D6F8EC30012B08BF06F1EC040AD14FF4C5
S315000023307A7328462146002204F022F9D6F8EC30BA
S31500002340012BF4D0D6F8E4000023C6F85832002852
S315000023503FF465ADD6F8E8304BB11C78002C00F0A0
S315000023603C82012C00F081820023C6F8E830FFF79A
S315000023700FF996F8F230B82202FB03630024C6F880
S31500002380E44093F81831102B40F0A981C6F8584262
S31500002390C2E400BF28FA080074250900B834090011
S315000023A00304010000FF080028460021FEF7A8FEEE
S315000023B0D6F8E40020B1FFF7EBF80023C6F8E430C6
S315000023C0D6F8EC200023012A08BFC6F8EC30C6F880
S315000023D0E8302846FEF7A0FE372208A8002184F040
S315000023E073FF97F82B2096F8F2308DF85420B82218
S315000023F002FB036393F81821102A14BF022301235A
S315000024008DF8553097F82C30022B04BF03238DF836
S31500002410553097F82A30012B00F0A981022B7FF462
S31500002420FEAC8DF84930102A00F02A8297F82C303D
S31500002430082B00F06F8297F82820002A40F04B8284
S31500002440D44D28686968AA68EB6803AC0FC428698C
S31500002450206003A94FF6FF74404608221423ADF806
S31500002460104001F013FD00287FF4D9AC404608A9BE
S315000024704FF27A02372301F009FD00287FF4CFAC32
S3150000248001230446C6F8EC30C6F8583244E4B823B3
S3150000249003FB09663B6886F822317B6886F824319F
S315000024A0002439E43B68ADF820300024404608A9F2
S315000024B00B220423ADF8224001F0E8FC00287FF44B
S315000024C02AAC54E40023089309930A933B88ADF899
S315000024D020307B88ADF82230BB88ADF82430FB88ED
S315000024E0ADF826303B89ADF828307B89ADF82A3027
S315000024F0404608A914220C2301F0C8FC00287FF4EA
S315000025000AAC34E4404639461B22012301F0BEFCE6
S3150000251000287FF400AC2AE42846394605F050F836
S3150000252025E4D6F8D040002C7FF421AC9A4BC6F8AF
S31500002530D030284604F05EF8FFF7EEBB3D887C8875
S31500002540A6F89640A6F89450404608A94FF21B02FA
S315000025500423ADF82240ADF82050002401F096FC8B
S31500002560FFF7DABBB82303FB096616A93A8821F8F8
S31500002570382DA6F89C2140464FF24202022301F074
S3150000258085FC00287FF4C7ABFFF7F1BBB82303FB3C
S3150000259009660024B6F89E313B80FFF7BDBB7F4B32
S315000025A01B683B600024FFF7B7BB3B88052B5FD158
S315000025B0012386F848320024FFF7AEBBD6F8BC30BC
S315000025C03B600024FFF7A8BB01232846414686F856
S315000025D09132002205F050F80446FFF79DBB3B7B85
S315000025E0003318BF012386F842323B69C5F89030A4
S315000025F07B7B96F842228DF820208DF821303B68AF
S31500002600CDF82230BB88ADF8263057F8060F0A9071
S31500002610BB88ADF82C3008A940464FF299020E232C
S3150000262001F034FC00287FF476ABFFF7A0BB3846F8
S315000026305B4985F035FF002841D1B82303FB0966C5
S315000026400123044686F82031FFF766BBB82303FB57
S315000026500966002496F8A8313B60FFF75DBB514B35
S315000026601B68002B3FF457AB98470446FFF754BB53
S315000026704046394601F02CFC0024FFF74DBB0020F4
S31500002680F8600446FFF748BB3846474985F008FF1F
S31500002690002840F09180B82303FB0966022486F8DF
S315000026A0A841FFF720BBF8600024FFF735BBD6F83A
S315000026B0EC30012B7FF446AE1824FFF72DBB3846CD
S315000026C03A4985F0EDFE002840F08480B82303FBEC
S315000026D009660223044686F82031FFF71DBBD6F8AB
S315000026E08C0021460322234601F0D0FB00283FF44C
S315000026F03EABC6F858424FF0FF34FFF70DBB2846F5
S31500002700BA1D089905F054F800283FF430AB089834
S31500002710274CFEF73DFFFFF7FFBAB82202FB09661A
S31500002720002486F82631FFF7F7BA224CFFF7F4BAF1
S31500002730284606F51D7101224FF47A7303F020FF37
S31500002740FFF7FBBA284606F51B7101224FF47A7390
S3150000275003F016FFA8E4D6F8A031002B3FF407AB30
S31500002760D6F85842002C7FF402ABFFF7D7BB97F898
S3150000277036108DF8531039468DF8493051F82D0F23
S315000027804B68CDF84E300B7ACDF84A008DF85230B2
S3150000279049E600BF00FF0800CD190000D42C042034
S315000027A03CFA0800B819FE1F7C34090044FA0800F8
S315000027B0FF040100030401003846A24985F070FEBB
S315000027C0002864D1B82303FB0966012486F8A841D2
S315000027D0FFF789BA9C4CFFF79FBA991C87F873409C
S315000027E093F824200891B81C191D84F047FDDDF8E4
S315000027F0208098F82230BB8498F822303B449C70A5
S3150000280098F8003098F8012043EA02233B8098F8B4
S315000028106830002B72D0B8F82530190740F18D804A
S315000028200823BB62FB62B8F8233003F020091FFAC5
S3150000283089F9B9F1000F40F0B38003F00204A4B2A5
S31500002840002C40F0C58013F0050340F0DF80C6F889
S315000028505832FFF7E4BA5046DBF8001084F00EFD5C
S315000028607B7888F82731FFF749BB5B78774AD35CDA
S3150000287087F873300023D6F8E400C6F8583273E5BB
S315000028809DF8563043F001038DF85630EEE5384694
S315000028906F4985F005FE002843D1B82303FB096381
S315000028A06C4A93F8A84192F86420012C18BF0224C0
S315000028B0651E69426941012A83F8A84108BF8DF85F
S315000028C02120022301228DF820108DF823208DF877
S315000028D02630FFF708BA08A8394684F0CFFC3B46F5
S315000028E053F8200F10909B88ADF84430FA8C97F877
S315000028F02830ADF846208DF84830A1E587F87230CB
S31500002900D5F88820D6F8E40082F890320123BB621D
S31500002910FB6229E59DF8563043F001038DF85630E9
S3150000292089E538464C4985F0BBFDB823B8B103FBB1
S31500002930096696F8A841FFF7D6B95A075FD504236A
S31500002940BB62FB626FE741F28833284606F51871D1
S31500002950012203F015FED6F86032FFF7D2BB03FB67
S3150000296009633C4A93F8A84192F86420012C18BFE9
S315000029700224601E41424141012A83F8A84108BF52
S315000029808DF82120012302228DF820108DF82330A6
S315000029908DF824308DF822308DF82620FFF7A3B964
S315000029A0032387F87230D5F8882082F8903207F131
S315000029B0310098F8682008F1280184F05FFC98F847
S315000029C068301F44002387F83130D6F8E400CBE4A2
S315000029D0022387F87230D5F8882082F8903207F102
S315000029E0310098F8682008F1280184F047FC98F82F
S315000029F068301F4487F83190D6F8E400B4E49B07AA
S31500002A007FF511AF0223BB62FB620CE7012387F857
S31500002A107230D5F8882082F8903298F8682007F14D
S31500002A20310008F1280184F029FC98F868303B440D
S31500002A3083F8314098F8273087F83030D6F8E4002C
S31500002A4092E400BF50FA08001704010098FA080043
S31500002A50DC080900F01EFE1F54FA08002DE9F04FAD
S31500002A609BB000284CD0B1F5805F064691460C46D7
S31500002A704BD08769002F43D0D7F888802129D8F812
S31500002A808CB098F8F2A052D0D8F884301BB9CD4B50
S31500002A901B6B002B46D038460121002204F000FDB6
S31500002AA00546002850D04FF0FF3420461BB0BDE845
S31500002AB0F08FD9F81040402C00F2B680B82303FB03
S31500002AC00A83D3F8F4306BB3B82101FB0A811A46A6
S31500002AD0F83101A88DF8643084F0D0FBD9F80C10D9
S31500002AE08DF86540224609A884F0C8FB584601A91E
S31500002AF04FF24802622301F0C9F9002800F0CC80A9
S31500002B00B14C20461BB0BDE8F08F1388112B52D074
S31500002B108769002FF4D0D7F88880D8F88CB098F859
S31500002B20F2A0B1E7A94C20461BB0BDE8F08FD8F85B
S31500002B30843000242046A3F10103B3FA83F35B0932
S31500002B4013601BB0BDE8F08F0B2C00F0888020D8F6
S31500002B50042C73D04AD8022C00F0E18000F2CD801C
S31500002B60012C22D1B82303FB0A8A3846DAF8F4305E
S31500002B70002B40F0438104F0AFFA002840F0518169
S31500002B80D7F88830002483F890420023C8F85832DA
S31500002B908BE7142C00F0208119D8102C00F0FC8053
S31500002BA0132C00F0E9800C2C83D021468848864CF3
S31500002BB085F010FB79E753681968FEF78DFE044629
S31500002BC000283FF472AFB069FEF700FF6DE7202CD6
S31500002BD02CD0B4F5805F3CD0192CE6D198F8F030B3
S31500002BE0012B27D0C9F8000004465EE7072C00F049
S31500002BF0B5800A2C00F0A280052CD6D1D9F8084061
S31500002C00202C11D8B82303FB0A83B820C3F8F4405C
S31500002C10002C00F0FE8018462246D9F80010F83045
S31500002C2084F02CFB002440E76A4C3EE7D7F8883056
S31500002C3093F89032C9F800302C4636E7D7F888303A
S31500002C40594683F891024A46384604F015FD044673
S31500002C502BE730464946FEF7B3FF044625E7D7F88B
S31500002C608830D9F8002083F89022D9F80030032B59
S31500002C70DAD8DFE803F02E181302B82303FB0A8321
S31500002C801021D3F81C2183F8211142F044020121BE
S31500002C9083F82011C3F81C21002406E7B82303FBA0
S31500002CA00A830821EDE7B82303FB0A880121D8F837
S31500002CB01C2188F821110320022122F0400288F805
S31500002CC02211002488F8241188F82001C8F81C2154
S31500002CD0EBE6B82303FB0A880122D8F81C1188F812
S31500002CE0212121F0400188F82221002488F824219E
S31500002CF088F82021C8F81C11D7E6D9F80030022B35
S31500002D0000F09980032B00F08E80012B8CD1B82324
S31500002D1003FB0A88022388F818310024C5E6D9F88F
S31500002D200C301B68A3F66C12482A3FF67DAFB8221A
S31500002D3002FB0A880446A8F89C31B6E6D9F80030AA
S31500002D40002B62D0012388F8F030584608F1F001D4
S31500002D501222012301F09AF80024A6E61AA9D9F84E
S31500002D60003021F8643D58463222022301F08EF8E5
S31500002D7000287FF4C5AE8FE75946384604F05CFC60
S31500002D80D7F88830D3F88022B3F88632C9F80030F5
S31500002D90C9F804202C4688E6B82303FB0A8303F50A
S31500002DA088731A7AC9F800201B7A022B50D0102B90
S31500002DB049D0012B7FF438AF02230446C9F800300E
S31500002DC073E600BF8019FE1FFF0401001204010014
S31500002DD05CFA080017040100B82303FB0AFA08EBA3
S31500002DE00A031946D3F8F420C9F81020F831013245
S31500002DF0D9F80C002C4684F041FA56E604F0AEF9F8
S31500002E000028164C08BF0024BFE6022388F8F030DD
S31500002E109BE700FB0A8000212022F83084F054FA58
S31500002E2043E60E4CB1E6B82303FB0A88102304469A
S31500002E3088F8183139E6B82303FB0A8801230446CB
S31500002E4088F8183131E603230446C9F800302CE629
S31500002E5001230446C9F8003027E600BFFF0401003D
S31500002E60F0B5D0F88860D0F8905087B079B10846B0
S31500002E700C46FEF78FFB96F8423207464BB1FDB182
S31500002E80A0602046FEF71EFCE0602046A84707B07B
S31500002E90F0BDA0602046FEF715FCE0602046FEF778
S31500002EA011FC0A4B996E59B15A6FDD6E01900132D1
S31500002EB001208DF8000002975A67059568468847F5
S31500002EC02046FEF765FB07B0F0BD00BFF01EFE1FF3
S31500002ED0F8B507460E200D461E46FEF72BFB0446A8
S31500002EE098B10676AB680D2B17D9E9680E222046F5
S31500002EF0FEF712FCEA68AB680E320E3BEA60AB6086
S31500002F002046FEF717FC2D280CD80B4D0023E36155
S31500002F102046FEF73DFB2846F8BD0848822103F00F
S31500002F2071FBE2E7E561B869214604F08BFD08B163
S31500002F30034DEBE70546EEE703040100A0FA08009F
S31500002F40FF04010030B58FB00C4611461A4601AB9E
S31500002F5004F00CFA08B10FB030BD0146322220460B
S31500002F6084F0B2F90EAB9DF82F2053F8300D9DF882
S31500002F702E109D889DF83030A06062702170A3707D
S31500002F800DF10E01A58104F10E0084F077F9BDF86C
S31500002F900630C3F34012C3F3001103F00303012B01
S31500002FA00CBF02230123E3719DF83230A271BDF8F4
S31500002FB00420A2805A07E17005D594F82E2042F02D
S31500002FC0040284F82E201D0705D594F82E2042F021
S31500002FD0080284F82E20980705D594F82E3043F081
S31500002FE0020384F82E309DF83430590705D594F83D
S31500002FF0302042F0040284F830201A0705D594F8F0
S31500003000302042F0080284F830209D0705D594F858
S31500003010303043F0020384F830309DF833305807DF
S3150000302005D594F82F2042F0020284F82F20D90605
S3150000303005D594F82F3043F0010384F82F309DF81E
S3150000304035309A0709D41B0785D594F8313043F0FB
S31500003050010384F831300FB030BD94F8312042F0CE
S31500003060020284F83120EEE730B58FB00C461146E7
S315000030701A4601AB04F07AF908B10FB030BD0EABB9
S315000030809DF82F2053F8300D9DF82E109D889DF841
S315000030903030A06062702170A3700DF10E01A58121
S315000030A004F10E0084F0EAF8BDF80630C3F34012CE
S315000030B0C3F3001103F00303012B0CBF022301230A
S315000030C0E3719DF83230A271BDF80420A2805A0740
S315000030D0E17005D594F82E2042F0040284F82E20E3
S315000030E01D0705D594F82E2042F0080284F82E20FC
S315000030F0980705D594F82E3043F0020384F82E3055
S315000031009DF83430590705D594F8302042F0040272
S3150000311084F830201A0705D594F8302042F00802CA
S3150000312084F830209D0705D594F8303043F002032B
S3150000313084F830309DF83330580705D594F82F20A1
S3150000314042F0020284F82F20D90605D594F82F30D4
S3150000315043F0010384F82F309DF835309A0709D4DF
S315000031601B078AD594F8313043F0010384F83130D7
S315000031700FB030BD94F8312042F0020284F83120BD
S31500003180EEE700BF2DE9F04FD0F8883085B0019307
S3150000319093F89132029000910392ABB3019AB2F880
S315000031A08662D2F88082002E00F0B7804FF00009C8
S315000031B0CA4601F1060BFF250BE0A378AB4238BFE8
S315000031C057465FFA82FA1FFA8AF938BF1D464E45FE
S315000031D06DD90AEB8A0303EB830308EB430406224B
S315000031E004F10801584684F039F80AF10102002872
S315000031F0E3D121460298009A039BFFF7A3FE4E45B2
S3150000320051D905B0BDE8F08F0199B1F88662D1F8C1
S315000032108082002E00F083809A469946009BFF2507
S3150000322003F1060B0BE0A378AB4238BF4F465FFABB
S3150000323082F91FFA89FA38BF1D4656451BD909EB94
S315000032404904C9EBC40408EB4404062204F108014E
S31500003250584684F003F809F101020028E3D121461B
S315000032600298009A039BFFF7FFFEB245C9D3029B63
S31500003270D3F888300193019BB3F88432B3422ED839
S31500003280009BDB78AB42BCD93FB207EB4703C7EBE9
S31500003290C3010298009A039B08EB410105B0BDE803
S315000032A0F04FFFF7E1BE029BD3F888300193019BF4
S315000032B0B3F88432B34221D8009BDB78AB42A0D965
S315000032C039B201EB810101EB81010298009A039B5F
S315000032D008EB410105B0BDE8F04FFFF733BE029C95
S315000032E0039B009A2E2101FB06812046FFF7BCFEB8
S315000032F0D4F888300136A3F8866282E7029C039BE5
S31500003300009A322101FB06812046FFF71BFED4F806
S3150000331088300136A3F8866273E7FF25C7E7FF25E5
S31500003320A9E700BF2DE9F04104460F4600211E46DD
S31500003330FDF7E6FE656B2046BDB1FDF7EDFE2046C6
S3150000334004EB870403F05AF9D4F8840031460622C8
S315000033500C3083F083FF3946B0FA80F33246AC4630
S315000033605B090120BDE8F0416047FDF7D5FE204628
S31500003370BDE8F04103F042B92DE9F041194D82B0A4
S31500003380044688462868A9880090ADF804102046AF
S31500003390002117461E46FDF7B3FE656B2046E5B1D4
S315000033A0FDF7BAFE68463146062283F057FF0A2F1C
S315000033B0B0FA80F34FEA531307D041463246002055
S315000033C0AC4602B0BDE8F041604738464146324659
S315000033D0AC4602B0BDE8F041604702B0BDE8F0413E
S315000033E0FDF79ABEB0FA0800D0F884300A68DA60B1
S315000033F08A881A8203F002B9034BDB6913B10846C7
S3150000340011461847704700BF8019FE1F034B5B6AC1
S3150000341013B1084611461847704700BF8019FE1FB2
S31500003420024B9B6A0BB10069184770478019FE1F53
S315000034302DE9F04104460E4600211746FDF760FED1
S31500003440656B20464DB1FDF767FE002238463146D2
S31500003450AC461346BDE8F0416047BDE8F041FDF7D4
S315000034605BBE00BF2DE9F04104460F46002116461B
S31500003470FDF746FE656B20465DB1FDF74DFE074B39
S31500003480002253F836003946AC461346BDE8F041F3
S315000034906047BDE8F041FDF73FBE00BFB8FA08003F
S315000034A070B505460C460021FDF72AFED5F8AC603E
S315000034B0284646B1FDF730FEA01DA1882268334696
S315000034C0BDE870401847BDE87040FDF725BE00BF57
S315000034D098B138B500F11C05044600212846FDF7D1
S315000034E00FFE0023237328462360A380E3802381F5
S315000034F06381BDE83840FDF70FBE704738B501213E
S3150000350005465C2003F088F8044658B100215C2289
S3150000351083F0DAFE04F11C00FDF7E0FD256120468C
S31500003520FFF7D6FF204638BD38B54B1C0C4605467E
S3150000353002D085F8504038BD0348C32103F062F835
S3150000354085F8504038BD00BFECFB080050B110B5FF
S3150000355004461C30FDF7ECFD20460121BDE8104075
S3150000356003F06AB8704700BF2DE9F0410C4684B0FD
S31500003570D9B12046FEF7DEF80D2804D8022568B238
S3150000358004B0BDE8F0812046FEF79CF88689330238
S3150000359003F47F4343EA1623B3F5C06F024609DA04
S315000035A0002568B204B0BDE8F0812048E82103F0A8
S315000035B029F8DEE70346006853F8061F009098884E
S315000035C0ADF80A009388CDF806102046ADF8043011
S315000035D0FDF7E0FF80462046FDF7DCFF08210746A1
S315000035E02046FEF771F805460028C7D12046FEF7AB
S315000035F069F8BB1FC3F30723A8F1060843EA0823AB
S31500003600ADF80C306B46044607CB0327B3F800E051
S315000036106574AA23A574E574A6822060A4F80CE05C
S315000036206160A2602774A373E373A8E700FC080037
S31500003630F0B50D461178032985B016461F4611D000
S3150000364005290BD17DB328460C21FEF73DF804462B
S31500003650002834D0022460B205B0F0BD002460B268
S3150000366005B0F0BD2DB328460C21FEF72DF8044613
S315000036700028EFD138687968BA7AB7F808E001AB64
S3150000368003C328469A70A3F800E0FEF71BF801ABC7
S31500003690024603CB03251F889B7810605160178173
S315000036A093723570DBE70A4840F2391102F0AAFF3F
S315000036B0C9E707484FF4937102F0A4FFD3E7284601
S315000036C03D78FDF7FFFF052305703370C7E700BFA0
S315000036D040FC08002DE9F041044690461E469DF840
S315000036E018700D46A1B12046294607AA089BFFF788
S315000036F09FFF18B1044660B2BDE8F0812846062156
S31500003700FDF7E2FF044648B1022460B2BDE8F0814D
S31500003710154840F2571102F075FFE4E72846FDF719
S31500003720D1FF024604F0FC0302F8014B013244705B
S3150000373002F8014B02F8014B48EA030802F8014B74
S3150000374008F03F0848EA87171470FFB20EB147F039
S31500003750200743889DF81C204770C3F30C0343EAF7
S3150000376042334380C7E700BF70FC080070B51546BA
S315000037701C460E4629B33046FDF7A4FF43885B0B73
S3150000378014BF0C2300238CB114330344DA88082AAF
S315000037900ED005F00702940041780D4B21F01C0174
S315000037A09A5C44EA01034370104670BD2246F3E773
S315000037B05A7A05F007055209954288BFEAB2940085
S315000037C0EAE704484FF4D47102F01CFFD3E700BFC8
S315000037D0E4FB080024FC080070B5054684B028B355
S315000037E02846FDF76FFF044600686168A268A6894F
S315000037F06B4607C328461E800821A68AFDF7A2FF4E
S31500003800044618B1022460B204B070BD2846FDF724
S3150000381059FFADF80C606B46054607CB1B88286040
S3150000382060B2AB816960AA6004B070BD02484FF413
S31500003830EB7102F0E7FED3E760FC080010B50C461A
S3150000384029B120460621BDE81040FDF77BBF05489B
S3150000385040F2EF1102F0D6FE20460621BDE81040E8
S31500003860FDF770BFD0FB08002DE9F8430746104668
S3150000387015468846FDF78EFE032846D92846FDF7ED
S3150000388021FF042104682846FDF75CFF0646002850
S315000038903BD12846FDF716FF81462846FDF77AFEFE
S315000038A0A1B2A1F5405105390346082926D8DFE81B
S315000038B001F00D2525152525251D0500384641460F
S315000038C04A4604F0F5FC70B2BDE8F8833846414636
S315000038D04A4604F0E5FC70B2BDE8F8833846414636
S315000038E04A4604F0DBFC70B2BDE8F8833846414630
S315000038F04A4604F0D9FC70B2BDE8F883BB69FF26DE
S315000039000133BB6170B2BDE8F8837B69FF260133E2
S315000039107B6170B2BDE8F8832DE9F04F814695B022
S315000039200F46002900F03D813846FDF733FE052895
S31500003930384640F22C81FDF7C5FE4388048803F023
S315000039400F03062138460893FDF7FCFE80463846ED
S31500003950B8F1000F40F01B81FDF7B4FE82463846F1
S31500003960FDF718FECE4D09900AAE05F1200BB446C0
S3150000397028686968AA68EB68E646AEE80F00103565
S315000039805D45F446F4D128686968ACE80300002375
S3150000399036F82320A24270D001330A2BF8D141F227
S315000039A02A039C4200F0138228D841F206039C4267
S315000039B000F0168240F2878041F210039C4200F02C
S315000039C0F68000F2CF8041F20A039C4200F0538158
S315000039D041F20B039C4200F0228141F209039C4212
S315000039E040F0CD80D9F810009AF800209AF80130FE
S315000039F0089904F0CDF84FF0000836E049F2390393
S31500003A009C4200F0F78146D849F216039C422FD01B
S31500003A1000F2908049F20A039C4200F0B98149F213
S31500003A200F039C4200F0DE8049F203039C4240F003
S31500003A30A6804FF0000818E00E2C00F0078141F236
S31500003A4001039C4240F09B80DAF80020D9F8100070
S31500003A509AF80E300092DAF80420019208990AF1D9
S31500003A60080204F0D3FB4FF000083846FDF790FD3E
S31500003A704FFA88F015B0BDE8F08F14AA02EB830365
S31500003A80099A33F8263C9A4289DA86484FF424711B
S31500003A9002F0B8FD83E749F23D039C4200F08E80B8
S31500003AA033D849F23B039C4200F0868100F28F80B6
S31500003AB0D9F81000089900975246099B04F056FA67
S31500003AC04FF00008D1E741F202039C4200F03F812B
S31500003AD0B2D941F204039C4200F0E88000F2A980CA
S31500003AE09AF80930D9F810009AF8082000930AF1DC
S31500003AF00A030193BAF80030029308990AF1020307
S31500003B0004F03AF94FF00008AFE749F240039C424F
S31500003B1000F0BC804FF201039C4277D049F23E038D
S31500003B209C422CD1D9F81000514604F0ABFB4FF063
S31500003B3000089AE749F232039C4200F0328149F2CA
S31500003B4038039C4257D049F231039C4217D1D9F829
S31500003B501000089900975246099B04F089F94FF026
S31500003B60000882E7B4F5815F00F0E88041F22203A5
S31500003B709C4277D041F21B039C4200F0D180D9F8D9
S31500003B8018300133C9F818304FF0FF086DE7FDF71C
S31500003B90FFFCD9F814300133C9F814304FF0FF0890
S31500003BA066E7404840F2762102F02CFDBCE6484626
S31500003BB008993A46FFF758FE804656E7D9F81000AE
S31500003BC0099A514604F042FB4FF000084DE7D9F838
S31500003BD01000089900975246099B04F08BFA4FF0A3
S31500003BE0000842E7D9F81000089900975246099B49
S31500003BF004F0D4FA3CE7D9F8100008990097524629
S31500003C00099B04F05BF94FF000082EE7D9F8100085
S31500003C100899524603F084FF4FF0000825E7D9F8CB
S31500003C2010000899099B524603F064FF4FF0000804
S31500003C301BE79AF80230042B7FF4FBAE1A484FF4C8
S31500003C40697102F0DFFC4FF000080EE7D9F81000AA
S31500003C509AF9012008990AF1020303F065FF4FF073
S31500003C60000802E7D9F810000899524604F0C6FA8F
S31500003C704FF00008F9E6DAF80020D9F810000899A4
S31500003C8052B203F06BFF4FF00008EEE6D9F81000D1
S31500003C90099A514604F0E8FA4FF00008E5E600BF3D
S31500003CA098FB080050FC080010FC0800DAF8082011
S31500003CB0DAF80000DAF804109AF80350BAF800B0FF
S31500003CC09AF80280BAF80AA007C604213846FDF71A
S31500003CD0FBFC3846FDF7F6FC04463846FDF75AFC71
S31500003CE014A9A5F15F0292B2034651F8240DA4F877
S31500003CF000B016B2898884F80280002EE570A28092
S31500003D00C4F80CA0C4F8060061813FF792AED9F85A
S31500003D1010000899224603F037FF4FF00008A4E68A
S31500003D209AF80030002B7FF484AED9F81000089979
S31500003D30102204F089FA4FF0000896E6D9F8100030
S31500003D400899524604F048FA4FF000088DE65346AB
S31500003D50BAF8081033F8022B0091BAF80A1001914C
S31500003D60DAF80C10D9F81000C9B202919AF81010BE
S31500003D7003919AF8111004919AF8121005910AF11C
S31500003D8013040899069403F04FFF4FF000086CE601
S31500003D90D9F81000099A514604F08EFA4FF000083F
S31500003DA063E6D9F81000089900975246099B04F07B
S31500003DB057F94FF0000858E6D9F81000089900970F
S31500003DC05246099B04F016F94FF000084DE6D9F863
S31500003DD010000899524603F0FBFE4FF0000844E637
S31500003DE0D9F81000DAF80020089903F093FE4FF096
S31500003DF000083AE6D9F81000089900975246099B40
S31500003E0004F084F84FF000082FE600BF2DE9F041DA
S31500003E10064682B0904690F850700C4661B3032B6C
S31500003E20204606D9FDF7B4FB0E2568B202B0BDE800
S31500003E30F0810621FDF748FC0546204635B1FDF721
S31500003E40A7FB022568B202B0BDE8F081FDF73AFC97
S31500003E50B6F858104388A0F8008023F00F0201F04E
S31500003E600F031343438021467AB2306903F0E0FD25
S31500003E7068B202B0BDE8F081034801934FF46E7159
S31500003E8002F0C0FB019BCAE7C0FB08002DE9F04128
S31500003E90074618461C4688461646FDF74BFB48B1B2
S31500003EA0054654B93846294632460023BDE8F04156
S31500003EB0FFF7ACBF0220BDE8F0812146FDF718FCF4
S31500003EC02846FDF7FFFB4146224683F0D7F9E9E78E
S31500003ED010B50B88013B82B0062B50D8DFE803F003
S31500003EE01726314F4F3F04004B680022ADF80420DF
S31500003EF01A785C788DF8042001A94FF2AF020223EC
S31500003F008DF80540FFF7C2FF40B202B010BD4B6806
S31500003F100022ADF804201B88ADF8043001A90F2259
S31500003F200223FFF7B3FF40B202B010BD02A901237E
S31500003F3001F8043D4FF20B02FFF7A8FF40B202B0B2
S31500003F4010BD4B68002201921B68019301A94FF234
S31500003F5012020423FFF79AFF40B202B010BD4B686D
S31500003F6000228DF804201B788DF8043001A94FF249
S31500003F7015020123FFF78AFF40B202B010BD0020F0
S31500003F80C2E700BF00B583B008238DF80010019288
S31500003F9069460922FFF77AFF03B05DF804FB00BF0C
S31500003FA0D0F88830022928BF022103EB01102C30FB
S31500003FB0704700BF40F6B41398421AD040F6B313C8
S31500003FC098420DD941F28733984214D9A0F59C53F3
S31500003FD00E48083B80FB0312D817C0EB62007047FF
S31500003FE00A4AA0F6671382FB0312D817C0EB6200D9
S31500003FF070470E207047054BA0F51D6083FB00231C
S31500004000C017C0EBE3000F30704700BF67666666F7
S31500004010D0F88830194491F95C007047064B03F1DB
S31500004020C0011A68824204D00C338B42F9D10020B9
S3150000403070471846704700BFD02A042038B50A4C8E
S3150000404004F1C003256825B10C349C42FAD1002046
S3150000405038BDA368206023B11846012102F0ECFAAE
S31500004060A560204638BD00BFD02A042038B5114CC3
S315000040700D4604F1C0022368984206D00C349442DF
S31500004080F9D1FFF7DBFF044678B1A06820B1012122
S3150000409002F0D2FA0023A3602846012102F0BCFAFE
S315000040A028B1A0606560204638BD204638BD206036
S315000040B038BD00BFD02A042038B51C464368806846
S315000040C015199D4288BF9C1A1044224683F0D6F8E3
S315000040D0204638BD38B51C46436815199D4288BF31
S315000040E09C1A836808469918224683F0C7F820462A
S315000040F038BD00BF0B4B30B4044603F1C0050020A9
S3150000410088420CD253F80C2C32B12260421C53F870
S31500004110080C606090B208340C33AB42F0D130BC6E
S31500004120704700BFDC2A0420064B1A680823013BAF
S3150000413082429BB203D0002BF9D118467047014842
S31500004140704700BF942B0420704700BF014800232E
S3150000415003607047D419FE1F70B5164601F00F04B0
S31500004160054670B1072C03D90848592102F04AFACE
S315000041702A680123A34005EB440413432B60A68061
S3150000418070BD0248582102F03DFAEBE7B0FC08008A
S3150000419038B501F00F05044660B1072D03D908486C
S315000041A0702102F02FFA23680122AA4023EA0203B3
S315000041B0236038BD02486F2102F024FAEDE700BF04
S315000041C0C8FC080010B5044610B10023236010BDDA
S315000041D00348872102F016FA0023236010BD00BFB2
S315000041E09CFC080070B50D461646044610B3072D14
S315000041F01AD82068B0FA80F04009284110F0010072
S3150000420010D104EB4504A388B34206D99B1BB3F532
S31500004210006F0EDBA680012070BDF31AB3F5006FA8
S31500004220F8DB70BD012070BD0548A82102F0EAF94F
S31500004230DFE770BD0248A72102F0E4F9D7E700BF27
S3150000424084FC08002DE9F041562384B088461746C1
S31500004250194601AA0DF1020602250446ADF80430FE
S31500004260ADF802000296ADF80C50FCF79BFD01304C
S315000042700ED0204601AA1F21FCF794FD40B9029AF0
S31500004280019BC8F800203B8040B204B0BDE8F08135
S31500004290FF20F9E7F0B5562385B00F4601AA194667
S315000042A00DF102060225ADF804300446ADF8020011
S315000042B00296ADF80C50FCF775FD431C05D0204660
S315000042C001AA16210297FCF76DFD40B205B0F0BDBC
S315000042D0F0B5562389B00D460DF10607194602269C
S315000042E005AA04460395ADF81430ADF80600069706
S315000042F0ADF81C60FCF756FD01300BD0204623219B
S3150000430002AAFCF74FFD28B9BDF81030E85440B2B8
S3150000431009B0F0BDFF20FAE7F0B5562385B00F4689
S3150000432001AA19460DF102060225ADF8043004462D
S31500004330ADF802000296ADF80C50FCF733FD431CB5
S315000043400FD00823204601AA194604240297ADF887
S315000043500430ADF80C40FCF725FD002814BFFF2003
S31500004360002040B205B0F0BDF0B58FB005A90446F7
S31500004370FFF7AEFF0546C8B9562319460DF10607E5
S315000043800226204602AAADF80640ADF8083003978B
S31500004390ADF81060FCF706FD013007D020462A462E
S315000043A01921FCF7FFFC40B20FB0F0BDFF2040B270
S315000043B00FB0F0BDF0B5562385B00F4601AA1946D9
S315000043C00DF102060225ADF804300446ADF80200F0
S315000043D00296ADF80C50FCF7E5FC431C0CD0072305
S315000043E0204601AA19460297ADF80430FCF7DAFC1C
S315000043F0002814BFFF20002040B205B0F0BD00BF6A
S3150000440070B588B05623ADF8061005AA19460DF109
S315000044100A060225ADF814300446ADF80A000696E1
S31500004420ADF81C50FCF7BEFC431C13D030232046CD
S3150000443005AA194601260DF1060503ACADF81430A0
S31500004440ADF80C6004950694FCF7ACFC002814BF8C
S31500004450FF20002040B208B070BD00BF70B588B024
S315000044605623019105AA19460DF10A060224ADF854
S3150000447014300546ADF80A000696ADF81C40FCF768
S3150000448091FC431C11D03023284605AA194601AEDB
S3150000449003ADADF80C40ADF8143004960695FCF764
S315000044A081FC002814BFFF20002040B208B070BD78
S315000044B02DE9F041562386B08846002719460DF1AE
S315000044C00606022503AAADF80C300446ADF8060030
S315000044D002970496ADF81450FCF764FC431C0AD00E
S315000044E006AA204642F8108D5F21FCF75BFCB84215
S315000044F014BFFF20384640B206B0BDE8F08100BFC9
S31500004500F0B556238BB00C4605AA19460DF10607E1
S315000045100226ADF814300546ADF806000697ADF84C
S315000045201C60FCF73FFC431C1BD0012C23D0042C41
S3150000453025D0022C27D0032C29D0052C14D005A871
S3150000454005240390ADF8084083F0CBFF2146ADF873
S31500004550100002AA2846FCF725FC002814BFFF20FD
S31500004560002040B20BB0F0BD0B4B93E80300059062
S315000045708DF81810E3E76123ADF81430DFE7622306
S31500004580ADF81430DBE76723ADF81430D7E76E23B8
S31500004590ADF81430D3E700BF54FA080070B586B002
S315000045A05623ADF8061003AA19460DF10A06022590
S315000045B0ADF80C300446ADF80A000496ADF8145078
S315000045C0FCF7F0FB431C1DD0BDF80630013B9AB248
S315000045D00D2A1AD8132503EB830303F66C13204622
S315000045E003AA29460DF106060424ADF80630ADF8F7
S315000045F00C500496ADF81440FCF7D4FB002814BF09
S31500004600FF20002040B206B070BDFF20FAE700BFD1
S31500004610F0B5562385B00F4601AA19460DF10206DC
S315000046200225ADF804300446ADF802000296ADF856
S315000046300C50FCF7B7FB431C0CD02F23204601AAD5
S3150000464019460297ADF80430FCF7ACFB002814BFFE
S31500004650FF20002040B205B0F0BD00BFF0B55623E4
S3150000466085B00F4601AA19460DF102060225ADF8DE
S3150000467004300446ADF802000296ADF80C50FCF783
S3150000468091FB431C13D00023204601AA19460DF1C5
S31500004690010501248DF80170ADF804300295ADF8DE
S315000046A00C40FCF77FFB002814BFFF20002040B21F
S315000046B005B0F0BD2DE9F041054688B01046144618
S315000046C0884683F00EFF61238DF80D0019462846B3
S315000046D0012703AE14256A468DF80C800494ADF8C4
S315000046E000308DF80E700196ADF80850FCF75AFBB5
S315000046F0003018BF0120404208B0BDE8F08100BF7D
S315000047002DE9F04188B00123044688468DF80C3027
S3150000471083F0E7FE61238DF80D0004F1200C04F10F
S31500004720400E04F16007194603AE14256A460020C0
S315000047308DF80E800494CDF814C0CDF818E00797D4
S31500004740ADF800300196ADF80850FCF72BFB0030B1
S3150000475018BF0120404208B0BDE8F08110B584B012
S315000047600424632300910DEB04021946ADF80C40B6
S31500004770ADF80430CDF808D00446FCF713FB48B971
S31500004780082320466A4618210093FCF70BFB40B22B
S3150000479004B010BDFF20FAE7F0B5562385B00F46EA
S315000047A001AA19460DF102060225ADF804300446A9
S315000047B0ADF802000296ADF80C50FCF7F3FA431C74
S315000047C005D0204601AA18210197FCF7EBFA40B262
S315000047D005B0F0BDF0B5562387B00F4603AA1946BB
S315000047E00DF102060225ADF80C300446ADF80200C4
S315000047F00496ADF81450FCF7D5FA431C14D00325E3
S315000048000123BB40204603AA294601AE0824019392
S315000048100293ADF80C500496ADF81440FCF7C2FABA
S31500004820002814BFFF20002040B207B0F0BD00BF33
S31500004830F0B5562385B00D4601AA19460DF10207BB
S315000048400226ADF804300446ADF802000297ADF832
S315000048500C60FCF7A7FA431C0AD02846029583F0A1
S3150000486040FE01AAADF80C001D212046FCF79AFA7D
S3150000487040B205B0F0BD00BF2DE9F041562386B029
S315000048800F469046194603AA0DF102060225ADF819
S315000048900C300446ADF802000496ADF81450FCF74F
S315000048A081FA431C14D02123204603AA194601ADE0
S315000048B005248DF80480CDF80570ADF80C3004950C
S315000048C0ADF81440FCF76EFA002814BFFF20002054
S315000048D040B206B0BDE8F08170B588B030238DF8DF
S315000048E00700194606260DF1070503AC05AA0020A8
S315000048F0ADF81430ADF80C6004950694FCF752FA46
S31500004900003018BF0120404208B070BD70B588B0B5
S31500004910302301901946032601AD03AC05AA0020F9
S31500004920ADF81430ADF80C6004950694FCF73AFA2D
S31500004930003018BF0120404208B070BD10B584B0E9
S31500004940A0B14FF4FA73ADF802301C2319460DF1ED
S31500004950020401AA0020ADF804300294FCF722FA02
S31500004960003018BF0120404204B010BDADF802006F
S31500004970EBE700BF30B5D0F8884094F8CA3105227D
S31500004980012B83B00546228039D0B4F8C431062203
S31500004990DB05228023D494F8CB3123B907230020EA
S315000049A0238003B030BD02A9002301F8013D28464B
S315000049B000F060FF18B19DF8073084F8CC3103236E
S315000049C02380284600F07AFF1021284600F0A6FB37
S315000049D0284600F00FF9002384F8CB31DEE728469D
S315000049E0D4F8E81101F006FC0028D4D1B4F8C4319B
S315000049F0C4F8E80123F48073A4F8C431CBE703229A
S31500004A000023228084F8CA3100F0F2FCBDE700BF23
S31500004A1038B505460C4689B14FF47A70FCF7F8FABA
S31500004A2028462146FCF7DEFC0C4B1B6A03B198476F
S31500004A304FF4FA60BDE83840FCF7EABAFF21234696
S31500004A40012201F017F84FF47A70FCF7E1FA2846D4
S31500004A502146BDE83840FCF7C5BC00BF8019FE1FE3
S31500004A6070B110B5D0F888300122044683F8CA2107
S31500004A70002101F00BF82046BDE8104001F0BABD58
S31500004A80704700BF704700BF10B541B9D0F88830F5
S31500004A90D3F8B44104F50064A41A204610BD0348B7
S31500004AA08D2101F0AFFD204610BD00BFE8FC0800D7
S31500004AB0D0F88830B3F86610023900220120C9B256
S31500004AC083F8571083F8581083F8370083F83800B6
S31500004AD083F8470083F8480083F8352083F83420AC
S31500004AE01A6383F8452083F844201A6483F8552016
S31500004AF083F854201A65704770B50023D0F8886093
S31500004B0081F83E3096F8B03181F83F30B6F8B241C0
S31500004B10B6F8BC3106341C4424EA03040D46A4B29C
S31500004B2021462846FCF7E4FDD6F8B0316B632C87A6
S31500004B3070BD00BF10B508460C46FCF72BFD18B13A
S31500004B400448512101F05EFD2046BDE81040FCF707
S31500004B501FBD00BF14FD080070B596B004250C46B5
S31500004B6006462B4604A803A90022009504F5847482
S31500004B70FCF790FDA40047F6FC73234090223046D4
S31500004B8004A9ADF84850ADF84A30ADF84C2000F015
S31500004B90E9FD18B10348632101F034FD039816B00E
S31500004BA070BD00BF4CFD080070B5D0F888600546A2
S31500004BB0FFF7F6F996F8383204460BB9037270BD62
S31500004BC0837A2846990803F00305FFF7C5FFEB0033
S31500004BD0D840637A6268C0B2C31ADBB293422072CD
S31500004BE006D39B1AE17ADBB21A440B446260E37285
S31500004BF070BD00BF70B5D0F8884094F8CC31DB07A3
S31500004C0096B004D4002384F8CC3116B070BD0426C7
S31500004C1033460546009604A803A90022FCF73AFD90
S31500004C2094F83832002BEDD1012384F838329022E3
S31500004C3040F2244304A92846ADF84860ADF84C205C
S31500004C40ADF84A3000F08EFD58B99DF80F30A4F843
S31500004C5066302846FFF72CFF002384F8CC3116B0C7
S31500004C6070BD034840F2011101F0CCFCEDE700BF36
S31500004C70FCFC0800F8B50E4691F83F10D0F88850B5
S31500004C80FFF78EF90446B0B3D5F83432012B1AD0AB
S31500004C9000273D463046FCF715FD04463046677151
S31500004CA0FCF778FC0638A0703046FCF773FC80B23F
S31500004CB00638000AE070657096F83F3023700020D1
S31500004CC0207140B2F8BDC37AABB196F83E504DB1F3
S31500004CD0677B5D1BEDB27B1CE5726373B5FA85F5E8
S31500004CE06D09D7E7054840F2ED1101F08BFCE37A38
S31500004CF096F83E50ECE7FF20E3E700BF64FD0800AE
S31500004D0008460621FCF71EBD2DE9F04F87B0804608
S31500004D1001928A461A4602930BB10023136050464D
S31500004D20FCF738FC84B25046FCF7CCFC054600285C
S31500004D307FD0052C7DD9EC78AB7829786A788DF808
S31500004D4017408DF814108DF816308DF81520059A39
S31500004D50DAF83410914243EA042404D0684840F259
S31500004D60772101F04FFC5046FCF714FCA31D83424B
S31500004D70C0F0BB806B789B0752D52B790093012B33
S31500004D8040F29E809C42C0F09B80009AC2F10603CE
S31500004D901C442C44002A3FD0012A00F097806678F4
S31500004DA0951EAE4204F10207D8BFCDF80CA012DD65
S31500004DB08CE0032B78D0012B41D064782D1B002D7D
S31500004DC03C4427DD012D00F081806678023DB54226
S31500004DD004F102077ADB2378022BEAD1052E69D982
S31500004DE0E379A278DB43DBB29A42E6D10199002946
S31500004DF0E3D0E3780B7023794B7063798B70A379DA
S31500004E00CB70029B1A460123136064782D1B002D7C
S31500004E103C44D7DCDDF80CA000995046FCF7A6FC14
S31500004E2050460621FCF78EFC002040B207B0BDE8D4
S31500004E30F08F334840F2662101F0E4FB7BE7760809
S31500004E40BBD007EB4606BB4607F1010A4FF0000947
S31500004E501BE04046FFF7A4F89BF80110427A43682E
S31500004E600A4442729BF8012033B19342A2EB03013C
S31500004E7016D8CAB2C0F80490C37A0BF1020B1344D9
S31500004E80B3450AF1020AC37297D01AF8011C052924
S31500004E90DFD9CA211B4801F0B5FB1AF8011CD8E777
S31500004EA09B1A43600022E7E717484FF4BD7101F0F3
S31500004EB0A9FB82E714484FF4A67101F0A3FB8FE724
S31500004EC00F4840F28F2101F09DFB5EE70E484FF43C
S31500004ED0C77101F097FB0A484FF42A7101F092FB63
S31500004EE0132040B207B0BDE8F08F5046FCF752FBE6
S31500004EF06FF005031B1B19185046FCF737FC39E702
S31500004F008CFD080074FD080024FD0800F0B50F882C
S31500004F1085B006238DF80B30012F4FF000030C46A9
S31500004F2003930646154622D02B4B1F6837B303ABB7
S31500004F3000930DF10B03B8470346A8B9039B23B9A9
S31500004F4026484FF4447101F05DFB9DF90B1089B2C0
S31500004F503046FFF725F82388039A9DF80B10438007
S31500004F60A971AA600023028058B205B0F0BD4FF4C3
S31500004F7080728DF80B3019460392E9E717730B8898
S31500004F80A3F58073042BDBD8DFE803F00A11181FA2
S31500004F900300052141F230038DF80B100393D7E788
S31500004FA0012140F206638DF80B100393D0E702212E
S31500004FB041F230038DF80B100393C9E7032141F248
S31500004FC030038DF80B100393C2E7042141F230033E
S31500004FD08DF80B100393BBE7BC19FE1F38FD0800C4
S31500004FE010B5134BD0F888209B688AB00446BBB135
S31500004FF0984790B90023204604A901246A460493E1
S3150000500005930693079308930993009301930293DC
S315000050100393ADF81040FFF779FF40B20AB010BD18
S3150000502006214FF4D063A2F86610A2F86830E1E7D3
S31500005030BC19FE1F10B50446FFF73AFD084B5B6826
S3150000504013B12046984748B92046012100F066F87A
S31500005050D4F888300122C3F83422002040B210BDB3
S31500005060BC19FE1F10B541F440410B0282B0144634
S3150000507003F47F43042243EA11210DEB0203FCF7FC
S31500005080C7F8019A130A03F47F4343EA12632360C5
S3150000509002B010BD00B541F480410B0A43EA01237A
S315000050A0C2F3072183B09BB241EA0221042243EAFC
S315000050B001410DEB0203FCF7ABF803B05DF804FB0E
S315000050C010B54FF4985100220446FFF7E3FF08B1EC
S315000050D040B210BD20464FF440614FF48062BDE8F7
S315000050E01040FFF7D7BF00BF012B05D010B41268E0
S315000050F05DF8044BFFF7CEBFFFF7B4BF10B582B023
S315000051004FF4007101AA0446FFF7ACFF20B9D4F8AA
S315000051108830019AC3F8DC2102B010BD38B5D0F84A
S315000051208840B4F8CE210A430546A4F8CE2119B921
S3150000513000F06CF8B4F8CE2128464FF45061BDE873
S315000051403840FFF7A7BF00BF70B5D0F88860D6F823
S31500005150E0315C1AA34282B005460CD9002C08BF88
S315000051600124224628464FF49851FFF793FF78B161
S3150000517040B202B070BD244840F21E2101F042FA4E
S31500005180224628464FF49851FFF784FF0028EFD1B6
S315000051906A4628464FF4A061FFF764FF0028E7D16E
S315000051A0009B03F00603042B0ED0B6F8C43143F07F
S315000051B004032846A6F8C4314FF48061FFF7AEFF1A
S315000051C0182040B202B070BD3C20FBF721FF2846F4
S315000051D06A464FF4A061FFF745FF0028C8D1009B3F
S315000051E003F00603042BE0D128464FF4007101AA10
S315000051F0FFF738FF0028BBD1019BC6F8DC312846F3
S31500005200FFF75EFFB4E700BFA4FD080038B5D0F88D
S315000052108840B4F8CE2122EA01020A420546A4F8E3
S31500005220CE2103D0FFF77AFFB4F8CE2128464FF4FB
S315000052305061BDE83840FFF72DBF00BF38B5D0F844
S3150000524088304FF48061B3F8D0210546FFF722FF7E
S31500005250044608B160B238BD2846FFF731FF044660
S315000052600028F7D128460E21FFF758FF28461021BF
S31500005270FFF754FF60B238BDD0F8883093F8F531A7
S315000052809B0700D470474FF480614FF40042FFF74C
S3150000529001BF00BF70B584B04FF4407102AA054645
S315000052A0D0F88860FFF7DEFE044620B9029BC6F8F8
S315000052B0D831032B02D860B204B070BD03AA2846C9
S315000052C04FF4A051FFF7CEFE04460028F3D128463E
S315000052D003AABDF80C50ADF804504FF4A851FFF7DF
S315000052E0C1FE04460028E6D1039A91B20A0A2B0AA7
S315000052F042EA012243EA0523C3F30721C2F307204A
S315000053008DF80E208DF80F008DF80C308DF80D10ED
S315000053100399ADF80620ADF8043011B1C6F8B01106
S31500005320C9E74FF47C71024801F06CF90399F5E77F
S3150000533008FE0800F8B505460E46D0F888701446F3
S31500005340B2B197F8C93116B1C3B154B1F8BD012B4A
S31500005350FBD187F8C96131462846FBF711FF002CBF
S31500005360F4D1FBF77BFE2846BDE8F840FBF7D4BE38
S315000053701146FBF7C5FEFBF76DFEE2E7012331465A
S3150000538087F8C9312846FBF7FBFEDEE738B5D0F8CB
S31500005390885095F9F421002A034605DB18460022B9
S315000053A0BDE83840FFF7C6BF0029F7D04FF450617B
S315000053B000220446FFF76EFE68B92046012100224E
S315000053C0FFF7B8FF2046B5F8CE214FF45061FFF73E
S315000053D061FE28B938BD0548B72101F013F9ECE79D
S315000053E00248BF21BDE8384001F00CB954FE080060
S315000053F070B5D0F88850B5F8C421120782B002D52E
S31500005400012002B070BD4FF440616A460446FFF7C2
S3150000541029FE064640BB009BB5F8CE1140F20E723F
S315000054200B401A400093C2B913F00E022DD113F4AB
S31500005430407F4CD15E0554D413F0010667D1D906DE
S315000054405DD4B5F8C4311A071AD5002ED8D0022378
S31500005450012085F8C83102B070BD20464FF4406186
S31500005460FFF718FE88B30646B5F8C4311B0725D5E5
S31500005470374840F27D3101F0C5F8012002B070BD19
S3150000548020460121FFF782FFDFE74FF44061204607
S31500005490FFF700FEB5F8C421009B42F0800223F01E
S315000054A00E03A5F8C42120464FF450610022009354
S315000054B0FFF7F0FDB5F8C4311B07A1D42046012142
S315000054C0FFF764FF002ED3D19AE7009BACE723F4E5
S315000054D0407320464FF440710093FFF797FE009B00
S315000054E0A8E723F4806320464FF480610093FFF71A
S315000054F08DFEB5F8C431580710D4009B9CE72046B2
S315000055009021FFF783FE012385F8CB3199E72046EA
S315000055100121FFF77BFE0126009B90E720464FF412
S31500005520007101AAFFF79EFD064600289CD1B5F83A
S31500005530C431019AC5F8DC2123F00403A5F8C4316F
S315000055402046FFF7BDFD064600288DD1D5E700BFF2
S31500005550DCFD080070B5D0F8884094F8F4118A078D
S3150000556082B0054600F09380B4F8C40120F0200212
S3150000557042F0400201F00803A4F8C42103F0FF0240
S31500005580002B3BD0032384F8D43184F8D531D4F8EA
S31500005590EC314549454A019200208B42A4F8D001DE
S315000055A037D8019301A92846FFF76CFAB4F8D03131
S315000055B094F8D52143F08001032AA4F8D0116ED0C7
S315000055C0012A04BF43F08603A4F8D031D4F8F031A1
S315000055D04FF47A7000FB03F0FBF71AFD4FF480617D
S315000055E02846B4F8D021FFF755FD02210646284685
S315000055F001F00CFBD6B170B202B070BDCB070FD56F
S3150000560020F06000A4F8C40184F8D42184F8D521E0
S31500005610BDE793421CBF4FF40073A4F8D031C1E735
S31500005620012384F8D43184F8D531B0E7D4F8EC31CD
S31500005630019301A92846FFF725FA28464FF4007181
S3150000564004F5EE72FFF70EFD06460028D3D1D4F816
S31500005650DC31C4F8E03140F65B42934204D0144892
S3150000566040F2734100F0CEFF2846FFF729FD0646BB
S315000056700028C0D128460E21FFF750FD28461021EC
S31500005680FFF74CFD28460121FFF780FEB3E740F205
S315000056900A41074800F0B6FF94F8F41164E743F0B6
S315000056A08403A4F8D03191E7FF356E0100366E0110
S315000056B01CFE08002DE9F0470D464E6CB6FA86F63C
S315000056C0760984B031460746B5F83C80D0F8889014
S315000056D0FBF79AFD002834D10446C8F3C018824669
S315000056E003E052441FFA82FA01342846E1B203AAC3
S315000056F0FBF772FF60B1039A002AF2D001460096CA
S3150000570092B238464346FBF747FDF0B9039AE8E7FD
S315000057102B8F9A4511D2D9F8B821CAEB03039342CD
S3150000572017D82A8FD9F8C0110096CAEB020292B296
S3150000573043463846FBF730FD18B938463146FBF785
S3150000574065FD40B204B0BDE8F0872B8F5345E2D823
S31500005750F7E7034840F2F34100F054FFE1E700BFEA
S31500005760C4FD080070B58B8F82B013F0200F14BFF4
S3150000577040230023054608460E460093FBF70AFF22
S31500005780009B03431A4628464FF4C0610093FFF777
S3150000579081FC044688BBB38F1A0631D5738F6FEA36
S315000057A043436FEA53439BB21C43224628464FF4B9
S315000057B0E0610094FFF76EFC0446F0B9C82409E0E6
S315000057C0009B13F0010F4FF47A700BD1013C4AD0C5
S315000057D0FBF71EFC28464FF4A0616A46FFF742FC21
S315000057E00028EDD0B38F1B0624D428464FF4406121
S315000057F04FF44072FFF74EFC044660B202B070BD33
S3150000580028464A21022201ABFBF702FD0446002886
